:020000040800F2
:1000000000500020250F0008750F0008750F00082C
:10001000750F0008750F0008750F0008000000003C
:10002000000000000000000000000000750F000844
:10003000750F000800000000750F0008750F00081C
:10004000750F0008750F0008750F0008750F000880
:10005000750F0008750F0008750F0008750F000870
:10006000750F0008750F0008750F0008750F000860
:10007000750F0008750F0008750F0008750F000850
:10008000750F000819120008750F0008750F000899
:10009000750F0008750F0008750F0008750F000830
:1000A000750F0008750F0008750F0008750F000820
:1000B000750F0008750F0008750F0008750F000810
:1000C000750F0008750F0008750F0008750F000800
:1000D000750F0008750F0008750F0008750F0008F0
:1000E000750F0008750F0008750F0008000000006C
:1000F0000000000000000000000000000000000000
:0C01000000000000000000005FF808F1A3
:10010C0010B5054C237833B9044B13B10448AFF345
:10011C0000800123237010BD90000020000000001F
:10012C00101C000808B5034B1BB103490348AFF37F
:10013C00008008BD0000000094000020101C000886
:10014C0080B400AF164B1B78002B15D1154B002239
:10015C00DA62144B00221A63124B00225A63114BC1
:10016C0001225A630F4A0F4B9B6843F48003936040
:10017C000B4B01221A700DE00A4B1B6803F00203B3
:10018C00002B07D0074BDB6C9AB2074B1A80044B41
:10019C0000221A70044B1B881846BD4680BC704761
:1001AC00AC00002000240140AE00002080B400AF61
:1001BC00444A444B9B6943F004039361424A424BCB
:1001CC001B6823F00F0313603E4A3E4B5B6823F41D
:1001DC00404353603B4A3B4B5B685360394A394B55
:1001EC009B6943F400739361384B00221A60374BC0
:1001FC0000225A60354B00229A60344B0022DA60A0
:10020C00324B00221A61314B00225A612F4B0022D3
:10021C009A612E4B0022DA612C4B00221A622B4B76
:10022C0000225A62294B00229A62284B0022DA6281
:10023C00264B00221A63254B00225A63234B0022C3
:10024C009A63224B0022DA63204B00221A641F4B64
:10025C0000225A641D4B00229A641C4B0022DA6463
:10026C001A4A1A4B9B6843F001039360174A174BC9
:10027C009B6843F00803936000BF144B9B6803F02A
:10028C000803002BF9D1114A104B9B6843F004036F
:10029C00936000BF0D4B9B6803F00403002BF9D156
:1002AC000A4A0A4B9B6843F4F0139360074A074BC6
:1002BC001B6943F4126343F00403136100BFBD4692
:1002CC0080BC70470010024000080140002401402F
:1002DC0080B485B000AF78600023FB6007E0FB685A
:1002EC000133FB60FB68052BF9D90023FB607B68AD
:1002FC005A1E7A60002BF5D100BF1437BD4680BC66
:10030C00704780B582B000AF786003E04FF47A702C
:10031C00FFF7DEFF7B685A1E7A60002BF6D100BF18
:10032C000837BD4680BD000080B596B002AF534A79
:10033C00524B9B6943F010039361514A504B5B68DD
:10034C0043F44013536046214E4800F09DFC20229C
:10035C004D49002000F030FB4C4A3B1D1146472212
:10036C00184601F015F84A4B20221A70FFF71EFFB1
:10037C0000F060FF414A414B9B6943F008039361D5
:10038C00444A444B5B6823F470435360414A414BED
:10039C005B6843F4004353603E4A3E4B5B6943F455
:1003AC0000635361002387F84F3097F84F305A1C85
:1003BC0087F84F2003F00103DBB2002B04D0304B45
:1003CC004FF000521A6103E02D4B4FF400521A61AA
:1003DC002F4B1B781A4630492B4800F09BFB0346E9
:1003EC0087F84E3097F94E30002B0CDB2B4B1B68EB
:1003FC0001332A4A136097F94E20294B1B6813448A
:10040C00274A13601BE0274B1B680133254A1360F6
:10041C00224B1A68224B1968224B1B68381D00931B
:10042C000B46214900F0C0FF0346A7F84C30B7F843
:10043C004C30DAB23B1D1146184600F05FFFFFF757
:10044C007FFE03461A46642303FB02F2174BA3FB01
:10045C000213D21A52081344DB0ADAB20E4B5A704A
:10046C000C4B9B6803F40063002B03D00A4B012256
:10047C001A709AE7084B00221A7096E70010024097
:10048C00001001400030014000000020601C0008FA
:10049C00B0000020000C014008000020B400002037
:1004AC00B8000020BC000020281C0008010110002E
:1004BC0080B586B000AFF8607A601A460B46FB72C6
:1004CC001346BB720F4A0F4BDB6823F00103D3605A
:1004DC00FB7A1946F86800F0F9FC0346FB75BB7A09
:1004EC009BB21A467968F86800F0BEFC054A054BC9
:1004FC00DB6843F00103D360FB7D18461837BD461B
:10050C0080BD00BF000C014080B586B000AFF86024
:10051C007A601A460B46FB721346BB720F4A0F4B9E
:10052C00DB6823F00103D360FB7A1946F86800F00E
:10053C00CDFC0346FB75BB7A9BB21A467968F8680A
:10054C0000F06CFC054A054BDB6843F00103D360FB
:10055C00FB7D18461837BD4680BD00BF000C01401E
:10056C0080B584B000AF78600B46FB70FB7803F06D
:10057C001F03FB700023FB7307F10F02F9780123B3
:10058C007868FFF795FFFB7B18461037BD4680BD9A
:10059C0080B584B000AFF8607A601A460B46FB72E7
:1005AC001346BB72FB7A03F01F03FB72BB7AF97A1A
:1005BC007A68F868FFF77CFF034618461037BD468B
:1005CC0080BD80B582B000AF78600B46FB701346DF
:1005DC00BB70FB7803F01F03FB70FB7843F0200328
:1005EC00D9B2BA1C01237868FFF78EFF00BF083719
:1005FC00BD4680BD80B584B000AFF8607A601A4605
:10060C000B46FB721346BB72FB7A03F01F03FB72A3
:10061C00FB7A43F02003D9B2BB7A7A68F868FFF70B
:10062C0073FF034618461037BD4680BD80B582B0B7
:10063C0000AF0346FB71FB7903F07F03DBB2FB7168
:10064C00054B1868FA1D01230521FFF7D3FF03465C
:10065C0018460837BD4680BD2800002080B500AF85
:10066C00044B186800230022E221FFF74DFF0346DC
:10067C00184680BD2800002080B500AF044B1868D8
:10068C0000230022E121FFF73FFF0346184680BDFF
:10069C002800002080B582B000AF78600B46FB705C
:1006AC00FB78202B01D92023FB70064B1868FB78B4
:1006BC007A68A021FFF728FF034618460837BD4685
:1006CC0080BD00BF2800002080B584B000AF034679
:1006DC00FB71104B186807F10C0201230621FFF780
:1006EC0057FFFB79032B28BF0323DBB203F0030373
:1006FC00DAB23B7B62F342033B73064B186807F19B
:10070C000C0201230621FFF775FF00BF1037BD4611
:10071C0080BD00BF2800002080B584B000AF034628
:10072C00FB71FB79022B01D90223FB711A4B186860
:10073C0007F10C0201230621FFF72AFFFB79012B9D
:10074C000CD0022B13D0002B1AD13B7B6FF3C303BD
:10075C003B733B7B43F020033B7311E03B7B6FF31C
:10076C00C3033B733B7B6FF345133B7308E03B7B4D
:10077C0043F008033B733B7B6FF345133B7300BFA4
:10078C00054B186807F10C0201230621FFF732FF15
:10079C0000BF1037BD4680BD2800002080B584B056
:1007AC0000AF0346FB71154B186807F10C020123CF
:1007BC000021FFF7EDFEFB79002B0ED03B7B43F0C5
:1007CC0008033B73FB79012B14BF01230023DAB21E
:1007DC003B7B62F382033B7303E03B7B6FF3C3030E
:1007EC003B73064B186807F10C0201230021FFF73D
:1007FC0001FF00BF1037BD4680BD00BF28000020A0
:10080C0080B584B000AF03460A46FB711346BB713A
:10081C00FB79052B2CD8184B186807F10F02012314
:10082C001C21FFF7B5FEBB79002B0BD0FB79012205
:10083C0002FA03F35AB2FB7B5BB213435BB2DBB23B
:10084C00FB730CE0FB79012202FA03F35BB2DB438E
:10085C005AB2FB7B5BB213405BB2DBB2FB73064B51
:10086C00186807F10F0201231C21FFF7C3FE00E0FB
:10087C0000BF1037BD4680BD2800002080B584B075
:10088C0000AF0346FB710F4B186807F10C020123F4
:10089C001D21FFF77DFEFB79002B14BF01230023E4
:1008AC00DAB23B7B62F382033B73064B186807F1A9
:1008BC000C0201231D21FFF79DFE00BF1037BD4622
:1008CC0080BD00BF2800002080B584B000AF034677
:1008DC000A46FB711346BB71FB790F2B28BF0F2304
:1008EC00DBB203F00F03DAB23B7B62F303033B731F
:1008FC00BB790F2B28BF0F23DBB203F00F03DAB247
:10090C003B7B62F307133B73054B186807F10C0232
:10091C0001230421FFF76EFE00BF1037BD4680BDDA
:10092C002800002080B582B000AF184B18683A1D23
:10093C0001230021FFF72CFE3B7943F001033B71AF
:10094C003B7943F002033B71104B18683A1D0123AD
:10095C000021FFF74FFE702000F084F90B4B186854
:10096C0005230B4A0A21FFF745FEFFF777FEFFF739
:10097C0083FE084A074BDB6843F00203D3608720F1
:10098C00FFF7A6FC00BF0837BD4680BD280000203D
:10099C00D1000020000C014080B500AF054A054B8A
:1009AC00DB6823F00203D360FFF758FEFFF764FE09
:1009BC0000BF80BD000C014080B584B000AF034681
:1009CC003960FB711346BB71FB79052B00F29980E2
:1009DC00BB79202B01D92023BB71FA7913465B001C
:1009EC0013445B00494A1344013305223968184605
:1009FC0000F0CEFCFA79BB7903F03F03D9B243483F
:100A0C0013465B0013445B00C218137861F3460372
:100A1C001370FA79BB79002B0CBF01230023D9B2D8
:100A2C003A4813465B0013445B00C218137861F319
:100A3C0000031370FA79354913465B0013445B00CD
:100A4C000B441B78C3F30003DBB21A46FB79114647
:100A5C001846FFF7D5FEFA792C4913465B00134470
:100A6C005B000B441B78C3F30003DBB2002B02D0FA
:100A7C000120FFF703FFFB79012B09D8244B1868E1
:100A8C00FB790A33D9B205233A68FFF7B3FD08E0C6
:100A9C001F4B1868FB790A33D9B201233A68FFF768
:100AAC00A9FDFA79194913465B0013445B000B440A
:100ABC001B78C3F30003DBB2002B08D1144B18686E
:100ACC00FB791133DBB2BA791946FFF77AFD104B7B
:100ADC001B6802211846FFF743FD0346FB73FB79A5
:100AEC00012202FA03F35AB297F90F3013435BB2A7
:100AFC00FB73074B1B68FA7B02211846FFF761FD5D
:100B0C0000E000BF1037BD4680BD00BFD000002004
:100B1C002800002080B586B000AFF860B96013469D
:100B2C00FB71FF23FB75454B18680523FA681021F0
:100B3C00FFF760FDFFF730FF404B186807F1140218
:100B4C0001230021FFF724FD3B7D6FF300033B7570
:100B5C003B7D43F002033B75384B186807F11402D8
:100B6C0001230021FFF746FD8720FFF7B1FBFB793E
:100B7C001946B868FFF78EFD314A314BDB6843F0FC
:100B8C000203D3600A20FFF7A3FB2D4A2C4BDB6832
:100B9C0023F00203D3602B4B4FF4FA721A8000F04F
:100BAC0053F80346BB756420FFF792FB254B1B885B
:100BBC00013B9AB2234B1A80BB7D03F03003002B10
:100BCC0003D1204B1B88002BE9D11E4B1B88002B1B
:100BDC0002D0302000F046F8184B186807F11402C8
:100BEC0001230021FFF7D4FC3B7D43F001033B754F
:100BFC003B7D6FF341033B75104B186807F11402F2
:100C0C0001230021FFF7F6FCBB7D03F02003002B32
:100C1C000CD00A4B186807F1100201230821FFF7CA
:100C2C00B7FC3B7CC3F30303DBB2FB75FFF77AFE27
:100C3C0097F9173018461837BD4680BD280000209C
:100C4C00000C0140C000002080B500AF044B1868B8
:100C5C0000230022FF21FFF72BFC0346184680BD22
:100C6C002800002080B582B000AF0346FB71054B15
:100C7C001B68FA7907211846FFF7A3FC00BF083759
:100C8C00BD4680BD2800002080B582B000AF7860E2
:100C9C000B46FB70224A7B681360224A214B9B69EE
:100CAC0043F008039361204A1F4B1B6823F0CC03CD
:100CBC0013601D4A1C4B1B6843F0330313601A4A24
:100CCC00194BDB6843F00103D360174A164BDB6802
:100CDC0023F00203D3600821786800F027F8642021
:100CEC00FFF70FFB02210520FFF7EEFD0320FFF7B6
:100CFC00EBFC0020FFF710FD0220FFF74FFD7020EA
:100D0C00FFF7B0FFFB781846FFF790FCFFF7A6FC47
:100D1C00FFF7B2FCFFF706FE00BF0837BD4680BDEB
:100D2C002800002000100240000C014080B588B063
:100D3C0000AF78600B46FB707B68344A934208D155
:100D4C00334A334B9B6943F4805343F00403936160
:100D5C000BE02F4A2E4BDB6943F48043D3612C4AC2
:100D6C002B4B9B6943F0080393610021786800F0DA
:100D7C003FF90023BB814FF48273FB81FB78102B6E
:100D8C0002D14FF4006300E000233B8200237B82FE
:100D9C000023BB824FF40073FB8218233B83002398
:100DAC007B830723BB8307F10C031946786800F09B
:100DBC00DCF80121786800F01BF97B68134A934238
:100DCC0010D1144A134B1B6823F0404323F4400307
:100DDC001360104A0F4B1B6843F0304343F430034D
:100DEC0013600FE00C4A0C4B1B6823F0404323F4B8
:100DFC0040031360084A084B5B6843F0304343F4EC
:100E0C003003536000BF2037BD4680BD0030014029
:100E1C000010024000080140000C014080B586B073
:100E2C0000AFF860B9601346FB800023FB8213E02F
:100E3C00BB685A1CBA601B789BB21946F86800F064
:100E4C00F6F800BF8021F86800F00BF90346012B7F
:100E5C00F8D0FB8A0133FB82FA8AFB889A42E7D3EB
:100E6C0000BF1837BD4680BD90B587B000AFF860A5
:100E7C00B9601346FB800023FB821FE000BF0221F8
:100E8C00F86800F0EEF80346002BF8D0FF21F86864
:100E9C0000F0CDF800BF8021F86800F0E2F80346BE
:100EAC00012BF8D0BC68631CBB60F86800F0CDF86F
:100EBC000346DBB22370FB8A0133FB82FA8AFB8880
:100ECC009A42DBD300BF1C37BD4690BD80B582B0C3
:100EDC0000AF78600B46FB7000BF0221786800F011
:100EEC00C0F80346002BF8D0FB789BB21946786803
:100EFC0000F09DF800BF8021786800F0B2F803463E
:100F0C00012BF8D0786800F0A0F80346DBB2184645
:100F1C000837BD4680BD0000DFF834D0002103E067
:100F2C000C4B5B58435004310B480C4B42189A4203
:100F3C00F6D30B4A02E0002342F8043B094B9A42D9
:100F4C00F9D300F0A9F800F0FFF9FFF7EDF97047BD
:100F5C0000500020E41C000800000020900000203D
:100F6C0090000020F8000020FEE780B485B000AFB0
:100F7C00786039600023FB817B681B88FB81FB89CF
:100F8C0003F44153FB813B681A883B685B8813432D
:100F9C009AB23B689B8813439AB23B68DB88134335
:100FAC009AB23B681B8913439AB23B685B89134323
:100FBC009AB23B689B8913439AB23B68DB89134313
:100FCC009AB2FB891343FB817B68FA891A807B6890
:100FDC009B8B9BB223F400639AB27B689A833B6829
:100FEC001A8A7B681A8200BF1437BD4680BC7047D2
:100FFC0080B483B000AF78600B46FB70FB78002B9D
:10100C0008D07B681B889BB243F040039AB27B6884
:10101C001A8007E07B681B889BB223F040039AB2CE
:10102C007B681A8000BF0C37BD4680BC704780B40B
:10103C0083B000AF78600B467B807B687A889A819E
:10104C0000BF0C37BD4680BC704780B483B000AF86
:10105C0078607B689B899BB218460C37BD4680BC78
:10106C00704780B485B000AF78600B467B8000235E
:10107C00FB737B681B899AB27B8813409BB2002B55
:10108C0002D00123FB7301E00023FB73FB7B1846AA
:10109C001437BD4680BC704780B500AF154A154B60
:1010AC001B6843F0010313601249124B5A68124B30
:1010BC0013404B600F4A0F4B1B6823F0847323F4CF
:1010CC00803313600B4A0B4B1B6823F48023136093
:1010DC00084A084B5B6823F4FE035360054B4FF43E
:1010EC001F029A6000F00CF8044B4FF000629A60FB
:1010FC0000BF80BD001002400000FFF800ED00E0D2
:10110C0080B500AF00F002F800BF80BD80B483B0A2
:10111C0000AF00237B6000233B603A4A394B1B68CD
:10112C0043F480331360374B1B6803F400333B608C
:10113C007B6801337B603B68002B03D17B68B3F584
:10114C00A06FF0D12F4B1B6803F40033002B02D09F
:10115C0001233B6001E000233B603B68012B4BD13A
:10116C00294A294B1B6843F010031360264A264B6F
:10117C001B6823F003031360234A234B1B6843F0C3
:10118C00020313601F4A1F4B5B6853601D4A1D4BC3
:10119C005B6853601B4A1B4B5B6843F48063536072
:1011AC00184A184B5B6823F47C135360154A154B93
:1011BC005B6843F4E8135360124A124B1B6843F00C
:1011CC008073136000BF0F4B1B6803F00073002B80
:1011DC00F9D00C4A0B4B5B6823F003035360094AAC
:1011EC00084B5B6843F00203536000BF054B5B6820
:1011FC0003F00C03082BF9D100BF0C37BD4680BCA3
:10120C00704700BF001002400020024080B400AFC5
:10121C00074B1B6803F00073002B05D0044A044BEA
:10122C005B6843F00073536000BFBD4680BC7047E1
:10123C000000024080B400AF2B4A2B4B9B6943F05B
:10124C0005039361284A284BDB6943F40033D361CF
:10125C00264A264B1B6823F470631360234A234BE6
:10126C001B6843F430631360214B4FF49C721A815A
:10127C001F4B00229A811E4A1D4B9B899BB243F047
:10128C0008039BB293811A4B00221A82184A184BFE
:10129C009B8A9BB243F080039BB29382144A144BFB
:1012AC009B899BB243F400539BB29381104A104B21
:1012BC001B889BB223F040039BB213800A4A0A4B53
:1012CC005B6943F0010353610A4A0A4B1B6843F004
:1012DC0092031360074B084A9A60064B00225A602F
:1012EC0000BFBD4680BC70470010024000080140A2
:1012FC0000440040800002400444004080B483B0AD
:10130C0000AF78600B46FB700E4B5B68002B01D076
:10131C00012312E00B4A0B4B1B6823F001031360F3
:10132C00084A7B68D360074AFB785360054A054B33
:10133C001B6843F001031360002318460C37BD46AD
:10134C0080BC70478000024070B500250C4E0D4CDF
:10135C00A41BA410A54209D100F054FC00250A4E90
:10136C000A4CA41BA410A54205D170BD56F825301B
:10137C0098470135EEE756F8253098470135F2E7E6
:10138C00DC1C0008DC1C0008DC1C0008E01C00084D
:10139C0010B5431E0A44914200D110BD11F8014B07
:1013AC0003F8014FF7E700000EB44FF4027100B5DB
:1013BC009CB0ADF814106FF00041049107914FF6FA
:1013CC00FF711DAB02900690084853F8042BADF842
:1013DC001610006802A9019300F066F80022029B27
:1013EC001A701CB05DF804EB03B070472C000020A1
:1013FC002DE9F0478E6882469E420C4691469846EF
:10140C0035D88A8912F4906F31D002232568096986
:10141C006F1A656905EB450595FBF3F508F10103BA
:10142C003B449D4238BF1D46530531D5294600F03B
:10143C003BFB064650B90C23CAF80030A3894FF089
:10144C00FF3043F04003A381BDE8F0873A462169A1
:10145C00FFF79EFFA38923F4906343F08003A381DD
:10146C0026613E44266046466561ED1BA5604645F7
:10147C0028BF464649463246206800F0AFFAA368BA
:10148C0000209B1BA36023681E442660BDE8F087E8
:10149C002A4600F067FB06460028E1D12169504638
:1014AC0000F0B6FAC7E700002DE9F04F9DB00393AA
:1014BC008B8980461C060D4616460FD50B696BB9F9
:1014CC00402100F0F1FA2860286128B90C23C8F8F3
:1014DC0000304FF0FF30C4E040236B6100230993D0
:1014EC0020238DF8293030234FF0010B8DF82A3052
:1014FC0037463C4614F8013B002B3CD1B7EB060AAF
:10150C000BD05346324629464046FFF771FF013057
:10151C0000F0A280099B534409933B78002B00F008
:10152C009B8000234FF0FF320493079305920693A0
:10153C008DF853301A9305222178504800F040FA68
:10154C00671C049BD8B9D90644BF20228DF85320C0
:10155C001A0744BF2B228DF8532022782A2A16D042
:10156C0000210A20079A27463B780134303B092B8F
:10157C0050D9C9B111E0252BC0D02746B9E73F4A55
:10158C003C46801A0BFA00F018430490D3E7039AF8
:10159C00111D12680391002A01DB079204E05242EC
:1015AC0043F00203079204933B782E2B0DD17B78EA
:1015BC00791C2A2B32D1039B02371A1D1B6803920C
:1015CC00002BB8BF4FF0FF3305932D4C0322397815
:1015DC00204600F0F5F938B14023001B03FA00F067
:1015EC00049B0137034304933978062225487E1C5B
:1015FC008DF8281000F0E4F9002835D0224BFBB907
:10160C00039B073323F0070308330393099B4B44D5
:10161C0009936DE700FB02320121A4E700230A24A1
:10162C00184605930F463A780131303A092A03D906
:10163C00002BCAD00590C8E704FB00200123F1E77A
:10164C0003AB00932A46114B04A94046AFF300802C
:10165C00B0F1FF3F8146D9D1AB895B063FF539AF7D
:10166C0009981DB0BDE8F08F03AB00932A46074BD9
:10167C0004A9404600F084F8EAE700BFA71C000864
:10168C00AD1C0008B11C000800000000FD13000890
:10169C002DE9F04791461F468A680B69064693422E
:1016AC00B8BF1346C9F8003091F843200C46DDF85A
:1016BC00208012B10133C9F800302368990642BF6B
:1016CC00D9F800300233C9F80030256815F006054A
:1016DC0007D104F1190AE368D9F800209B1A9D423E
:1016EC002ADB94F843302268003318BF012392069A
:1016FC002FD404F1430239463046C047013022D082
:10170C002368E56803F00603042B18BF0025D9F8FD
:10171C0000204FF0000908BFAD1AA368226908BF6A
:10172C0025EAE5759342C4BF9B1AED181A344D4552
:10173C001BD10020BDE8F0870123524639463046C4
:10174C00C047013003D14FF0FF30BDE8F0870135C1
:10175C00C1E73020E11881F843005A1C94F8451079
:10176C002244023382F84310C3E701232246394650
:10177C003046C0470130E6D009F10109D7E7000037
:10178C002DE9F04317460A7E85B06E2A9846064628
:10179C000C460C9B01F1430E00F0BC801AD8632A56
:1017AC002ED00AD8002A00F0C880582A00F08A806F
:1017BC0004F1420584F842202AE0642A01D0692A07
:1017CC00F6D121681A6811F0800F23D0111D196011
:1017DC00136827E0732A00F0B48008D86F2A2AD047
:1017EC00702AE5D10A6842F020020A6003E0752AEB
:1017FC0021D0782ADCD178226F4984F8452064E026
:10180C001A6801F14205111D1960136884F8423001
:10181C000123A3E011F0400F02F104011960D7D0AD
:10182C00B2F90030002B03DA2D225B4284F84320FE
:10183C0062490A2217E02068196810F0800F03D063
:10184C00081D18600B6806E010F0400F01F1040051
:10185C001860F7D00B886F2A14BF0A220822574948
:10186C00002084F843006568002DA560C0F29C80C0
:10187C00206820F004002060002B3FD1002D40F0A8
:10188C0095807546082A0BD12368DA0708D5236999
:10189C0062689A42DEBF302305F8013C05F1FF3542
:1018AC00AEEB05032361CDF800803B4603AA21462D
:1018BC003046FFF7EDFE013055D14FF0FF3005B04B
:1018CC00BDE8F08381F845203C492268186812F085
:1018DC00800F00F104051D6001D0036802E055067D
:1018EC00FBD50388D00744BF42F0200222601BB90D
:1018FC00226822F0200222601022B1E77546B3FB69
:10190C00F2F002FB1033CB5C05F8013D03460028D6
:10191C00F5D1B7E708681A6810F0800F496904D050
:10192C00101D18601368196007E010F0400F02F1E9
:10193C00040018601368F6D01980002375462361E3
:10194C00B1E71A68111D19601568002162682846F4
:10195C0000F036F808B1401B606063682361002317
:10196C0084F843309FE723692A4639463046C047FE
:10197C000130A2D023689B0707D5002504F1190973
:10198C00E368039A9B1A9D4205DBE068039B98422F
:10199C00B8BF184693E701234A4639463046C0473C
:1019AC0001308AD00135EBE7002BA7D10B7804F17D
:1019BC00420584F8423065E7C91C0008B81C0008D1
:1019CC0010B5C9B202449042034601D1002010BDAB
:1019DC001C7801308C42F6D1184610BD884210B5E7
:1019EC0001EB020303D8421E99420CD110BD984260
:1019FC00F9D28118D21AD34200D110BD13F8014D7F
:101A0C0001F8014DF7E711F8014B02F8014FEBE734
:101A1C0038B50546002943D051F8043C0C1F002B67
:101A2C00B8BFE41800F0D4F81E4A1368104633B956
:101A3C00636014602846BDE8384000F0CAB8A34281
:101A4C000BD921686218934201BF1A685B6852185F
:101A5C00226063600460EDE713465A680AB1A24243
:101A6C00FAD919685818A0420BD1206801445818AB
:101A7C0082421960DED110685268014419605A60C4
:101A8C00D8E702D90C232B60D4E7206821188A42AE
:101A9C0001BF116852680918216062605C60C9E777
:101AAC0038BD00BFC400002070B5CD1C25F0030567
:101ABC0008350C2D38BF0C25002D064601DBA9423C
:101ACC0003D90C233360002070BD00F081F8234A49
:101ADC001468214691B9224C23681BB9304600F09A
:101AEC0067F820602946304600F062F8431C26D186
:101AFC000C233046336000F06CF8E4E70B685B1B9A
:101B0C001AD40B2B0FD90B60CC18CD50304600F0EB
:101B1C0060F804F10B00231D20F00700C31A1BD042
:101B2C005A42E25070BD8C420BBF63684B68136025
:101B3C00636018BF0C46E9E70C464968CAE7C41C49
:101B4C0024F00304A04205D0211A304600F030F8EE
:101B5C000130CDD02560D9E770BD00BFC400002096
:101B6C00C8000020F8B5074614460E4621B91146A8
:101B7C00BDE8F840FFF798BF22B9FFF749FF2546AB
:101B8C002846F8BD00F026F884420FD92146384685
:101B9C00FFF78AFF05460028F2D031462246FFF7B0
:101BAC00F7FB31463846FFF733FFE9E73546E7E701
:101BBC0038B50023054C05460846236000F014F8A0
:101BCC00431C02D1236803B12B6038BDF400002004
:101BDC007047704751F8040C0028A0F10400BCBFFA
:101BEC000B58C01870470000044B0246196809B91D
:101BFC0003491960186802441A607047CC00002031
:101C0C00F8000020F8B500BFF8BC08BC9E46704731
:0C1C1C00F8B500BFF8BC08BC9E4670473D
:101C28001B635061636B6167657320253130640DF8
:101C38000A526574726965732020253130640D0A73
:101C48004572726F7273202020253130640D0A2D81
:101C58002D2D0D0A000000001B635061636B616746
:101C6800657320313030303030303030300D0A522A
:101C7800657472696573202031303030303030300F
:101C880030300D0A4572726F727320202031303067
:101C9800303030303030300D0A2D2D2D0D0A002314
:101CA8002D302B2000686C4C006566674546470060
:101CB800303132333435363738394142434445467A
:101CC8000030313233343536373839616263646510
:041CD80066000000A2
:041CDC0031010008CA
:041CE0000D010008EA
:101CE40001020304050000000202030405060708BC
:101CF4001102030405060708210203040506070868
:101D040031020304050607080030014030000020BA
:101D140000000000000000000000000000000000BF
:101D240000000000000000000000000000000000AF
:101D3400000000000000000000000000000000009F
:101D4400000000000000000000000000000000008F
:101D5400000000000000000000000000000000007F
:101D6400000000000000000000000000000000006F
:0400000508000F25BB
:00000001FF
